{
    "contractName": "SupplyChain",
    "abi": [
        {
            "inputs": [],
            "stateMutability": "payable",
            "type": "constructor"
        },
        {
            "anonymous": false,
            "inputs": [
                {
                    "indexed": true,
                    "internalType": "address",
                    "name": "account",
                    "type": "address"
                }
            ],
            "name": "ConsumerAdded",
            "type": "event"
        },
        {
            "anonymous": false,
            "inputs": [
                {
                    "indexed": true,
                    "internalType": "address",
                    "name": "account",
                    "type": "address"
                }
            ],
            "name": "ConsumerRemoved",
            "type": "event"
        },
        {
            "anonymous": false,
            "inputs": [
                {
                    "indexed": true,
                    "internalType": "address",
                    "name": "account",
                    "type": "address"
                }
            ],
            "name": "DistributorAdded",
            "type": "event"
        },
        {
            "anonymous": false,
            "inputs": [
                {
                    "indexed": true,
                    "internalType": "address",
                    "name": "account",
                    "type": "address"
                }
            ],
            "name": "DistributorRemoved",
            "type": "event"
        },
        {
            "anonymous": false,
            "inputs": [
                {
                    "indexed": true,
                    "internalType": "address",
                    "name": "account",
                    "type": "address"
                }
            ],
            "name": "FarmerAdded",
            "type": "event"
        },
        {
            "anonymous": false,
            "inputs": [
                {
                    "indexed": true,
                    "internalType": "address",
                    "name": "account",
                    "type": "address"
                }
            ],
            "name": "FarmerRemoved",
            "type": "event"
        },
        {
            "anonymous": false,
            "inputs": [
                {
                    "indexed": false,
                    "internalType": "uint256",
                    "name": "upc",
                    "type": "uint256"
                }
            ],
            "name": "ForSale",
            "type": "event"
        },
        {
            "anonymous": false,
            "inputs": [
                {
                    "indexed": false,
                    "internalType": "uint256",
                    "name": "upc",
                    "type": "uint256"
                }
            ],
            "name": "Harvested",
            "type": "event"
        },
        {
            "anonymous": false,
            "inputs": [
                {
                    "indexed": false,
                    "internalType": "uint256",
                    "name": "upc",
                    "type": "uint256"
                }
            ],
            "name": "Packed",
            "type": "event"
        },
        {
            "anonymous": false,
            "inputs": [
                {
                    "indexed": false,
                    "internalType": "uint256",
                    "name": "upc",
                    "type": "uint256"
                }
            ],
            "name": "Processed",
            "type": "event"
        },
        {
            "anonymous": false,
            "inputs": [
                {
                    "indexed": false,
                    "internalType": "uint256",
                    "name": "upc",
                    "type": "uint256"
                }
            ],
            "name": "Purchased",
            "type": "event"
        },
        {
            "anonymous": false,
            "inputs": [
                {
                    "indexed": false,
                    "internalType": "uint256",
                    "name": "upc",
                    "type": "uint256"
                }
            ],
            "name": "Received",
            "type": "event"
        },
        {
            "anonymous": false,
            "inputs": [
                {
                    "indexed": true,
                    "internalType": "address",
                    "name": "account",
                    "type": "address"
                }
            ],
            "name": "RetailerAdded",
            "type": "event"
        },
        {
            "anonymous": false,
            "inputs": [
                {
                    "indexed": true,
                    "internalType": "address",
                    "name": "account",
                    "type": "address"
                }
            ],
            "name": "RetailerRemoved",
            "type": "event"
        },
        {
            "anonymous": false,
            "inputs": [
                {
                    "indexed": false,
                    "internalType": "uint256",
                    "name": "upc",
                    "type": "uint256"
                }
            ],
            "name": "Shipped",
            "type": "event"
        },
        {
            "anonymous": false,
            "inputs": [
                {
                    "indexed": false,
                    "internalType": "uint256",
                    "name": "upc",
                    "type": "uint256"
                }
            ],
            "name": "Sold",
            "type": "event"
        },
        {
            "anonymous": false,
            "inputs": [
                {
                    "indexed": true,
                    "internalType": "address",
                    "name": "oldOwner",
                    "type": "address"
                },
                {
                    "indexed": true,
                    "internalType": "address",
                    "name": "newOwner",
                    "type": "address"
                }
            ],
            "name": "TransferOwnership",
            "type": "event"
        },
        {
            "inputs": [
                {
                    "internalType": "address",
                    "name": "account",
                    "type": "address"
                }
            ],
            "name": "addConsumer",
            "outputs": [],
            "stateMutability": "nonpayable",
            "type": "function"
        },
        {
            "inputs": [
                {
                    "internalType": "address",
                    "name": "account",
                    "type": "address"
                }
            ],
            "name": "addDistributor",
            "outputs": [],
            "stateMutability": "nonpayable",
            "type": "function"
        },
        {
            "inputs": [
                {
                    "internalType": "address",
                    "name": "account",
                    "type": "address"
                }
            ],
            "name": "addFarmer",
            "outputs": [],
            "stateMutability": "nonpayable",
            "type": "function"
        },
        {
            "inputs": [
                {
                    "internalType": "address",
                    "name": "account",
                    "type": "address"
                }
            ],
            "name": "addRetailer",
            "outputs": [],
            "stateMutability": "nonpayable",
            "type": "function"
        },
        {
            "inputs": [
                {
                    "internalType": "uint256",
                    "name": "_upc",
                    "type": "uint256"
                }
            ],
            "name": "buyItem",
            "outputs": [],
            "stateMutability": "payable",
            "type": "function"
        },
        {
            "inputs": [
                {
                    "internalType": "uint256",
                    "name": "_upc",
                    "type": "uint256"
                }
            ],
            "name": "fetchItemBufferOne",
            "outputs": [
                {
                    "internalType": "uint256",
                    "name": "itemSKU",
                    "type": "uint256"
                },
                {
                    "internalType": "uint256",
                    "name": "itemUPC",
                    "type": "uint256"
                },
                {
                    "internalType": "address",
                    "name": "ownerID",
                    "type": "address"
                },
                {
                    "internalType": "address",
                    "name": "originFarmerID",
                    "type": "address"
                },
                {
                    "internalType": "string",
                    "name": "originFarmName",
                    "type": "string"
                },
                {
                    "internalType": "string",
                    "name": "originFarmInformation",
                    "type": "string"
                },
                {
                    "internalType": "string",
                    "name": "originFarmLatitude",
                    "type": "string"
                },
                {
                    "internalType": "string",
                    "name": "originFarmLongitude",
                    "type": "string"
                }
            ],
            "stateMutability": "view",
            "type": "function"
        },
        {
            "inputs": [
                {
                    "internalType": "uint256",
                    "name": "_upc",
                    "type": "uint256"
                }
            ],
            "name": "fetchItemBufferTwo",
            "outputs": [
                {
                    "internalType": "uint256",
                    "name": "itemSKU",
                    "type": "uint256"
                },
                {
                    "internalType": "uint256",
                    "name": "itemUPC",
                    "type": "uint256"
                },
                {
                    "internalType": "uint256",
                    "name": "productID",
                    "type": "uint256"
                },
                {
                    "internalType": "string",
                    "name": "productNotes",
                    "type": "string"
                },
                {
                    "internalType": "uint256",
                    "name": "productPrice",
                    "type": "uint256"
                },
                {
                    "internalType": "uint256",
                    "name": "itemState",
                    "type": "uint256"
                },
                {
                    "internalType": "address",
                    "name": "distributorID",
                    "type": "address"
                },
                {
                    "internalType": "address",
                    "name": "retailerID",
                    "type": "address"
                },
                {
                    "internalType": "address",
                    "name": "consumerID",
                    "type": "address"
                }
            ],
            "stateMutability": "view",
            "type": "function"
        },
        {
            "inputs": [
                {
                    "internalType": "uint256",
                    "name": "_upc",
                    "type": "uint256"
                },
                {
                    "internalType": "address",
                    "name": "_originFarmerID",
                    "type": "address"
                },
                {
                    "internalType": "string",
                    "name": "_originFarmName",
                    "type": "string"
                },
                {
                    "internalType": "string",
                    "name": "_originFarmInformation",
                    "type": "string"
                },
                {
                    "internalType": "string",
                    "name": "_originFarmLatitude",
                    "type": "string"
                },
                {
                    "internalType": "string",
                    "name": "_originFarmLongitude",
                    "type": "string"
                },
                {
                    "internalType": "string",
                    "name": "_productNotes",
                    "type": "string"
                }
            ],
            "name": "harvestItem",
            "outputs": [],
            "stateMutability": "nonpayable",
            "type": "function"
        },
        {
            "inputs": [
                {
                    "internalType": "address",
                    "name": "account",
                    "type": "address"
                }
            ],
            "name": "isConsumer",
            "outputs": [
                {
                    "internalType": "bool",
                    "name": "",
                    "type": "bool"
                }
            ],
            "stateMutability": "view",
            "type": "function"
        },
        {
            "inputs": [
                {
                    "internalType": "address",
                    "name": "account",
                    "type": "address"
                }
            ],
            "name": "isDistributor",
            "outputs": [
                {
                    "internalType": "bool",
                    "name": "",
                    "type": "bool"
                }
            ],
            "stateMutability": "view",
            "type": "function"
        },
        {
            "inputs": [
                {
                    "internalType": "address",
                    "name": "account",
                    "type": "address"
                }
            ],
            "name": "isFarmer",
            "outputs": [
                {
                    "internalType": "bool",
                    "name": "",
                    "type": "bool"
                }
            ],
            "stateMutability": "view",
            "type": "function"
        },
        {
            "inputs": [],
            "name": "isOwner",
            "outputs": [
                {
                    "internalType": "bool",
                    "name": "",
                    "type": "bool"
                }
            ],
            "stateMutability": "view",
            "type": "function"
        },
        {
            "inputs": [
                {
                    "internalType": "address",
                    "name": "account",
                    "type": "address"
                }
            ],
            "name": "isRetailer",
            "outputs": [
                {
                    "internalType": "bool",
                    "name": "",
                    "type": "bool"
                }
            ],
            "stateMutability": "view",
            "type": "function"
        },
        {
            "inputs": [],
            "name": "kill",
            "outputs": [],
            "stateMutability": "nonpayable",
            "type": "function"
        },
        {
            "inputs": [],
            "name": "owner",
            "outputs": [
                {
                    "internalType": "address",
                    "name": "",
                    "type": "address"
                }
            ],
            "stateMutability": "view",
            "type": "function"
        },
        {
            "inputs": [
                {
                    "internalType": "uint256",
                    "name": "_upc",
                    "type": "uint256"
                }
            ],
            "name": "packItem",
            "outputs": [],
            "stateMutability": "nonpayable",
            "type": "function"
        },
        {
            "inputs": [
                {
                    "internalType": "uint256",
                    "name": "_upc",
                    "type": "uint256"
                }
            ],
            "name": "processItem",
            "outputs": [],
            "stateMutability": "nonpayable",
            "type": "function"
        },
        {
            "inputs": [
                {
                    "internalType": "uint256",
                    "name": "_upc",
                    "type": "uint256"
                }
            ],
            "name": "purchaseItem",
            "outputs": [],
            "stateMutability": "nonpayable",
            "type": "function"
        },
        {
            "inputs": [
                {
                    "internalType": "uint256",
                    "name": "_upc",
                    "type": "uint256"
                }
            ],
            "name": "receiveItem",
            "outputs": [],
            "stateMutability": "nonpayable",
            "type": "function"
        },
        {
            "inputs": [],
            "name": "renounceConsumer",
            "outputs": [],
            "stateMutability": "nonpayable",
            "type": "function"
        },
        {
            "inputs": [],
            "name": "renounceDistributor",
            "outputs": [],
            "stateMutability": "nonpayable",
            "type": "function"
        },
        {
            "inputs": [],
            "name": "renounceFarmer",
            "outputs": [],
            "stateMutability": "nonpayable",
            "type": "function"
        },
        {
            "inputs": [],
            "name": "renounceOwnership",
            "outputs": [],
            "stateMutability": "nonpayable",
            "type": "function"
        },
        {
            "inputs": [],
            "name": "renounceRetailer",
            "outputs": [],
            "stateMutability": "nonpayable",
            "type": "function"
        },
        {
            "inputs": [
                {
                    "internalType": "uint256",
                    "name": "_upc",
                    "type": "uint256"
                },
                {
                    "internalType": "uint256",
                    "name": "_price",
                    "type": "uint256"
                }
            ],
            "name": "sellItem",
            "outputs": [],
            "stateMutability": "nonpayable",
            "type": "function"
        },
        {
            "inputs": [
                {
                    "internalType": "uint256",
                    "name": "_upc",
                    "type": "uint256"
                }
            ],
            "name": "shipItem",
            "outputs": [],
            "stateMutability": "nonpayable",
            "type": "function"
        },
        {
            "inputs": [
                {
                    "internalType": "address",
                    "name": "newOwner",
                    "type": "address"
                }
            ],
            "name": "transferOwnership",
            "outputs": [],
            "stateMutability": "nonpayable",
            "type": "function"
        }
    ],
    "bytecode": "60806040819052600080546001600160a01b031916339081178255917f5c486528ec3e3f0ea91181cff8116f02bfa350e03b8b6f12e00765adbb5af85c908290a36200004b336200008e565b6200005633620000e0565b620000613362000132565b6200006c3362000184565b600580546001600160a01b03191633179055600160078190556006556200025c565b620000a9816001620001d660201b620015891790919060201c565b6040516001600160a01b038216907f2e0ded4123377a3c2bc9a26f1717655a129e2f20752924d42e730ec89c83dbd090600090a250565b620000fb816002620001d660201b620015891790919060201c565b6040516001600160a01b038216907f28b26e7a3d20aedbc5f8f2ebf7da671c0491723a2b78f47a097b0e46dee0714290600090a250565b6200014d816003620001d660201b620015891790919060201c565b6040516001600160a01b038216907f71ae26cad02663e3d92efd6ec56031a80d74a20c0ab4183faa8bf262261c9baa90600090a250565b6200019f816004620001d660201b620015891790919060201c565b6040516001600160a01b038216907fddbf200aa634dc3fb81cfd68583dd1040d1c751d335e1d86b631bde3e977fea890600090a250565b6001600160a01b038116620001ea57600080fd5b620001f6828262000226565b156200020157600080fd5b6001600160a01b0316600090815260209190915260409020805460ff19166001179055565b60006001600160a01b0382166200023c57600080fd5b506001600160a01b03166000908152602091909152604090205460ff1690565b611dbb806200026c6000396000f3fe60806040526004361061019c5760003560e01c8063834ff739116100ec578063bdd8a6a81161008a578063e7fb74c711610064578063e7fb74c714610487578063f2fde38b1461049a578063f30fc480146104ba578063f61c899a146104da57600080fd5b8063bdd8a6a814610432578063d38ea5bf14610452578063db0e6a2f1461047257600080fd5b80638f0c86fa116100c65780638f0c86fa146103b25780638f32d59b146103d2578063a26be999146103f2578063b94290691461041257600080fd5b8063834ff7391461034a5780638da5cb5b1461036a5780638ec4f5051461039257600080fd5b8063644241db116101595780637250e224116101335780637250e224146102c157806377c45913146102e157806380c3f96d1461031557806380fc0ce41461033557600080fd5b8063644241db1461026257806366225ff914610277578063715018a6146102ac57600080fd5b8063112940f9146101a15780632d923561146101c357806341c0e1b5146101e357806349dae766146101f85780635da09b881461021857806361e6982d1461024d575b600080fd5b3480156101ad57600080fd5b506101c16101bc366004611985565b6104fa565b005b3480156101cf57600080fd5b506101c16101de3660046119a7565b61054f565b3480156101ef57600080fd5b506101c1610649565b34801561020457600080fd5b506101c16102133660046119c9565b61066c565b34801561022457600080fd5b50610238610233366004611985565b610761565b60405190151581526020015b60405180910390f35b34801561025957600080fd5b506101c1610774565b34801561026e57600080fd5b506101c161077d565b34801561028357600080fd5b506102976102923660046119c9565b610786565b60405161024499989796959493929190611a2f565b3480156102b857600080fd5b506101c16108bc565b3480156102cd57600080fd5b506101c16102dc366004611985565b61091d565b3480156102ed57600080fd5b506103016102fc3660046119c9565b61094b565b604051610244989796959493929190611a8f565b34801561032157600080fd5b506101c1610330366004611985565b610bff565b34801561034157600080fd5b506101c1610c4a565b34801561035657600080fd5b50610238610365366004611985565b610c53565b34801561037657600080fd5b506000546040516001600160a01b039091168152602001610244565b34801561039e57600080fd5b506101c16103ad366004611985565b610c60565b3480156103be57600080fd5b506102386103cd366004611985565b610cad565b3480156103de57600080fd5b506000546001600160a01b03163314610238565b3480156103fe57600080fd5b506101c161040d3660046119c9565b610cba565b34801561041e57600080fd5b5061023861042d366004611985565b610dde565b34801561043e57600080fd5b506101c161044d366004611bb7565b610deb565b34801561045e57600080fd5b506101c161046d3660046119c9565b61106a565b34801561047e57600080fd5b506101c1611143565b6101c16104953660046119c9565b61114c565b3480156104a657600080fd5b506101c16104b5366004611985565b61136a565b3480156104c657600080fd5b506101c16104d53660046119c9565b61138a565b3480156104e657600080fd5b506101c16104f53660046119c9565b611477565b61050333610c53565b6105435760405162461bcd60e51b815260206004820152600c60248201526b2737ba1031b7b739bab6b2b960a11b60448201526064015b60405180910390fd5b61054c816115d5565b50565b8160026000828152600860205260409020600b015460ff16600781111561057857610578611ca3565b146105b25760405162461bcd60e51b815260206004820152600a602482015269139bdd08141858dad95960b21b604482015260640161053a565b6000838152600860205260409020600301546001600160a01b03163381146105ec5760405162461bcd60e51b815260040161053a90611cb9565b600084815260086020908152604091829020600b8101805460ff19166003179055600a0185905590518581527fa96ae0fc3224ebd79eebfe54bd130cc9cb94416cddd1f2386115e00b72532468910160405180910390a150505050565b6005546001600160a01b0316330361066a576005546001600160a01b031680ff5b565b80600080828152600860205260409020600b015460ff16600781111561069457610694611ca3565b146106d15760405162461bcd60e51b815260206004820152600d60248201526c139bdd0812185c9d995cdd1959609a1b604482015260640161053a565b6000828152600860205260409020600301546001600160a01b031633811461070b5760405162461bcd60e51b815260040161053a90611cb9565b600083815260086020908152604091829020600b01805460ff1916600117905590518481527f5afe3b1bf87069693c075da5c22a98d63d1aef98a30dbbe538d0781a98b77ee591015b60405180910390a1505050565b600061076e600383611617565b92915050565b61066a3361164c565b61066a3361168e565b60008181526008602081905260408220805460018201549282015460099092018054919460609290918291829182918291906107c190611cdd565b80601f01602080910402602001604051908101604052809291908181526020018280546107ed90611cdd565b801561083a5780601f1061080f5761010080835404028352916020019161083a565b820191906000526020600020905b81548152906001019060200180831161081d57829003601f168201915b50505060008d8152600860205260409020600a810154600b9091015493995097505060ff9091169050600781111561087457610874611ca3565b60008b8152600860205260409020600b810154600c820154600d909201549296506001600160a01b036101009091048116955090811693501690509193959799909294969850565b6000546001600160a01b031633146108d357600080fd5b600080546040516001600160a01b03909116907f5c486528ec3e3f0ea91181cff8116f02bfa350e03b8b6f12e00765adbb5af85c908390a3600080546001600160a01b0319169055565b61092633610cad565b6109425760405162461bcd60e51b815260040161053a90611d17565b61054c816116d0565b6000818152600860205260409020805460018201546002830154600384015460049094018054939492936001600160a01b03928316939092169160609182918291829161099790611cdd565b80601f01602080910402602001604051908101604052809291908181526020018280546109c390611cdd565b8015610a105780601f106109e557610100808354040283529160200191610a10565b820191906000526020600020905b8154815290600101906020018083116109f357829003601f168201915b50505060008c8152600860205260409020600501805493975092610a3692509050611cdd565b80601f0160208091040260200160405190810160405280929190818152602001828054610a6290611cdd565b8015610aaf5780601f10610a8457610100808354040283529160200191610aaf565b820191906000526020600020905b815481529060010190602001808311610a9257829003601f168201915b50505060008c8152600860205260409020600601805493965092610ad592509050611cdd565b80601f0160208091040260200160405190810160405280929190818152602001828054610b0190611cdd565b8015610b4e5780601f10610b2357610100808354040283529160200191610b4e565b820191906000526020600020905b815481529060010190602001808311610b3157829003601f168201915b50505060008c8152600860205260409020600701805493955092610b7492509050611cdd565b80601f0160208091040260200160405190810160405280929190818152602001828054610ba090611cdd565b8015610bed5780601f10610bc257610100808354040283529160200191610bed565b820191906000526020600020905b815481529060010190602001808311610bd057829003601f168201915b50505050509050919395975091939597565b610c0833610dde565b610c415760405162461bcd60e51b815260206004820152600a6024820152692737ba102330b936b2b960b11b604482015260640161053a565b61054c81611712565b61066a33611754565b600061076e600283611617565b610c6933610761565b610ca45760405162461bcd60e51b815260206004820152600c60248201526b2737ba102932ba30b4b632b960a11b604482015260640161053a565b61054c81611796565b600061076e600483611617565b610cc333610761565b610cfe5760405162461bcd60e51b815260206004820152600c60248201526b2737ba102932ba30b4b632b960a11b604482015260640161053a565b8060056000828152600860205260409020600b015460ff166007811115610d2757610d27611ca3565b14610d625760405162461bcd60e51b815260206004820152600b60248201526a139bdd0814da1a5c1c195960aa1b604482015260640161053a565b6000828152600860209081526040918290206002810180546001600160a01b031990811633908117909255600c830180549091169091179055600b01805460ff1916600617905590518381527fa8142743f8f70a4c26f3691cf4ed59718381fb2f18070ec52be1f1022d85555791015b60405180910390a15050565b600061076e600183611617565b604051806101e001604052806007548152602001888152602001600560009054906101000a90046001600160a01b03166001600160a01b03168152602001876001600160a01b03168152602001868152602001858152602001848152602001838152602001600754600654610e609190611d56565b81526020018281526020016000815260200160006007811115610e8557610e85611ca3565b815260006020808301829052604080840183905260609384018390528b8352600882529182902084518155848201516001820155918401516002830180546001600160a01b03199081166001600160a01b039384161790915593850151600384018054909516911617909255608083015180519192610f0c926004850192909101906118d0565b5060a08201518051610f289160058401916020909101906118d0565b5060c08201518051610f449160068401916020909101906118d0565b5060e08201518051610f609160078401916020909101906118d0565b5061010082015160088201556101208201518051610f889160098401916020909101906118d0565b50610140820151600a820155610160820151600b8201805460ff19166001836007811115610fb857610fb8611ca3565b0217905550610180820151600b82018054610100600160a81b0319166101006001600160a01b03938416021790556101a0830151600c830180546001600160a01b03199081169284169290921790556101c090930151600d9092018054909316911617905560075461102b906001611d56565b6007556040518781527f8e55ccfc9778ff8eba1646d765cf1982537ce0f9257054a17b48aad7452501839060200160405180910390a150505050505050565b8060066000828152600860205260409020600b015460ff16600781111561109357611093611ca3565b146110cf5760405162461bcd60e51b815260206004820152600c60248201526b139bdd08149958d95a5d995960a21b604482015260640161053a565b6000828152600860209081526040918290206002810180546001600160a01b031990811633908117909255600d830180549091169091179055600b01805460ff1916600717905590518381527f653d56639fee6b566a5c804764e9689de38645f0b733df89a36a1b7b42173dd89101610dd2565b61066a336117d8565b8060036000828152600860205260409020600b015460ff16600781111561117557611175611ca3565b146111b05760405162461bcd60e51b815260206004820152600b60248201526a4e6f7420466f7253616c6560a81b604482015260640161053a565b6000828152600860205260409020600a0154348111156112125760405162461bcd60e51b815260206004820152601860248201527f4e6f7420656e6f75676820746f206d6565742050726963650000000000000000604482015260640161053a565b8261121c33610cad565b6112385760405162461bcd60e51b815260040161053a90611d17565b6000848152600860205260408082206002810180546001600160a01b03191633908117909155600b82018054600461010090930260ff19166001600160a81b0319909116179190911790556003810154600a9091015491516001600160a01b0390911692839280156108fc02929091818181858888f193505050501580156112c4573d6000803e3d6000fd5b506040518581527f92f64ca637d023f354075a4be751b169c1a8a9ccb6d33cdd0cb35205439957279060200160405180910390a1506000818152600860205260408120600a0154906113168234611d6e565b600084815260086020526040808220600d015490519293506001600160a01b031691829184156108fc02918591818181858888f19350505050158015611360573d6000803e3d6000fd5b5050505050505050565b6000546001600160a01b0316331461138157600080fd5b61054c8161181a565b8060016000828152600860205260409020600b015460ff1660078111156113b3576113b3611ca3565b146113f05760405162461bcd60e51b815260206004820152600d60248201526c139bdd08141c9bd8d95cdcd959609a1b604482015260640161053a565b6000828152600860205260409020600301546001600160a01b031633811461142a5760405162461bcd60e51b815260040161053a90611cb9565b600083815260086020908152604091829020600b01805460ff1916600217905590518481527f9b3b66e2380b690bae22c73ef1428fb0c91e72fe14a4b6defa13035214187aff9101610754565b61148033610cad565b61149c5760405162461bcd60e51b815260040161053a90611d17565b8060046000828152600860205260409020600b015460ff1660078111156114c5576114c5611ca3565b146114fd5760405162461bcd60e51b8152602060048201526008602482015267139bdd0814dbdb1960c21b604482015260640161053a565b6000828152600860205260409020600b015461010090046001600160a01b031633811461153c5760405162461bcd60e51b815260040161053a90611cb9565b600083815260086020908152604091829020600b01805460ff1916600517905590518481527ff00b9a5725b80c54016f42114f6ed7792d22eecb116011c4afac29c57bef6c959101610754565b6001600160a01b03811661159c57600080fd5b6115a68282611617565b156115b057600080fd5b6001600160a01b0316600090815260209190915260409020805460ff19166001179055565b6115e0600282611589565b6040516001600160a01b038216907f28b26e7a3d20aedbc5f8f2ebf7da671c0491723a2b78f47a097b0e46dee0714290600090a250565b60006001600160a01b03821661162c57600080fd5b506001600160a01b03166000908152602091909152604090205460ff1690565b611657600282611888565b6040516001600160a01b038216907fe3f5ed5f263f1f01764a96edfc7d025f511ec5f7d180e8816908b78bcf74f09890600090a250565b611699600482611888565b6040516001600160a01b038216907f126174f6cf49c81cdb4a9214c6b8f037bef55b4ec31e4fc776cea2a1c8a88d5990600090a250565b6116db600482611589565b6040516001600160a01b038216907fddbf200aa634dc3fb81cfd68583dd1040d1c751d335e1d86b631bde3e977fea890600090a250565b61171d600182611589565b6040516001600160a01b038216907f2e0ded4123377a3c2bc9a26f1717655a129e2f20752924d42e730ec89c83dbd090600090a250565b61175f600182611888565b6040516001600160a01b038216907fa5e0f060af304ab17dd418c7927e3da3ae7868189bf387aee09ab179ccc572f290600090a250565b6117a1600382611589565b6040516001600160a01b038216907f71ae26cad02663e3d92efd6ec56031a80d74a20c0ab4183faa8bf262261c9baa90600090a250565b6117e3600382611888565b6040516001600160a01b038216907fdb7176e79cffef81cb01767dd0447a0b24bb72ca9778d4b245581086b2a7e6db90600090a250565b6001600160a01b03811661182d57600080fd5b600080546040516001600160a01b03808516939216917f5c486528ec3e3f0ea91181cff8116f02bfa350e03b8b6f12e00765adbb5af85c91a3600080546001600160a01b0319166001600160a01b0392909216919091179055565b6001600160a01b03811661189b57600080fd5b6118a58282611617565b6118ae57600080fd5b6001600160a01b0316600090815260209190915260409020805460ff19169055565b8280546118dc90611cdd565b90600052602060002090601f0160209004810192826118fe5760008555611944565b82601f1061191757805160ff1916838001178555611944565b82800160010185558215611944579182015b82811115611944578251825591602001919060010190611929565b50611950929150611954565b5090565b5b808211156119505760008155600101611955565b80356001600160a01b038116811461198057600080fd5b919050565b60006020828403121561199757600080fd5b6119a082611969565b9392505050565b600080604083850312156119ba57600080fd5b50508035926020909101359150565b6000602082840312156119db57600080fd5b5035919050565b6000815180845260005b81811015611a08576020818501810151868301820152016119ec565b81811115611a1a576000602083870101525b50601f01601f19169290920160200192915050565b60006101208b83528a6020840152896040840152806060840152611a558184018a6119e2565b6080840198909852505060a08101949094526001600160a01b0392831660c085015290821660e08401521661010090910152949350505050565b888152602081018890526001600160a01b0387811660408301528616606082015261010060808201819052600090611ac9838201886119e2565b905082810360a0840152611add81876119e2565b905082810360c0840152611af181866119e2565b905082810360e0840152611b0581856119e2565b9b9a5050505050505050505050565b634e487b7160e01b600052604160045260246000fd5b600082601f830112611b3b57600080fd5b813567ffffffffffffffff80821115611b5657611b56611b14565b604051601f8301601f19908116603f01168101908282118183101715611b7e57611b7e611b14565b81604052838152866020858801011115611b9757600080fd5b836020870160208301376000602085830101528094505050505092915050565b600080600080600080600060e0888a031215611bd257600080fd5b87359650611be260208901611969565b9550604088013567ffffffffffffffff80821115611bff57600080fd5b611c0b8b838c01611b2a565b965060608a0135915080821115611c2157600080fd5b611c2d8b838c01611b2a565b955060808a0135915080821115611c4357600080fd5b611c4f8b838c01611b2a565b945060a08a0135915080821115611c6557600080fd5b611c718b838c01611b2a565b935060c08a0135915080821115611c8757600080fd5b50611c948a828b01611b2a565b91505092959891949750929550565b634e487b7160e01b600052602160045260246000fd5b6020808252600a90820152692737ba1029b2b73232b960b11b604082015260600190565b600181811c90821680611cf157607f821691505b602082108103611d1157634e487b7160e01b600052602260045260246000fd5b50919050565b6020808252600f908201526e2737ba102234b9ba3934b13aba37b960891b604082015260600190565b634e487b7160e01b600052601160045260246000fd5b60008219821115611d6957611d69611d40565b500190565b600082821015611d8057611d80611d40565b50039056fea26469706673582212202cf855a43bfcdb2ee47909adbdf88df7abda5094094fecf1f3185d78a43f892164736f6c634300080d0033",
    "sourcePath": "d:/Udacity/Home/Workspace/SupplyChain/project-6/contracts/coffeebase/SupplyChain.sol",
    "compiler": {
        "name": "solc",
        "version": "0.8.13+commit.abaa5c0e"
    },
    "functionHashes": {
        "addConsumer(address)": "112940f9",
        "addDistributor(address)": "7250e224",
        "addFarmer(address)": "80c3f96d",
        "addRetailer(address)": "8ec4f505",
        "buyItem(uint256)": "e7fb74c7",
        "fetchItemBufferOne(uint256)": "77c45913",
        "fetchItemBufferTwo(uint256)": "66225ff9",
        "harvestItem(uint256,address,string,string,string,string,string)": "bdd8a6a8",
        "isConsumer(address)": "834ff739",
        "isDistributor(address)": "8f0c86fa",
        "isFarmer(address)": "b9429069",
        "isOwner()": "8f32d59b",
        "isRetailer(address)": "5da09b88",
        "kill()": "41c0e1b5",
        "owner()": "8da5cb5b",
        "packItem(uint256)": "f30fc480",
        "processItem(uint256)": "49dae766",
        "purchaseItem(uint256)": "d38ea5bf",
        "receiveItem(uint256)": "a26be999",
        "renounceConsumer()": "61e6982d",
        "renounceDistributor()": "644241db",
        "renounceFarmer()": "80fc0ce4",
        "renounceOwnership()": "715018a6",
        "renounceRetailer()": "db0e6a2f",
        "sellItem(uint256,uint256)": "2d923561",
        "shipItem(uint256)": "f61c899a",
        "transferOwnership(address)": "f2fde38b"
    },
    "gasEstimates": {
        "creation": {
            "codeDepositCost": "1522200",
            "executionCost": "infinite",
            "totalCost": "infinite"
        },
        "external": {
            "addConsumer(address)": "infinite",
            "addDistributor(address)": "infinite",
            "addFarmer(address)": "infinite",
            "addRetailer(address)": "infinite",
            "buyItem(uint256)": "infinite",
            "fetchItemBufferOne(uint256)": "infinite",
            "fetchItemBufferTwo(uint256)": "infinite",
            "harvestItem(uint256,address,string,string,string,string,string)": "infinite",
            "isConsumer(address)": "2685",
            "isDistributor(address)": "2684",
            "isFarmer(address)": "2750",
            "isOwner()": "2377",
            "isRetailer(address)": "2751",
            "kill()": "32066",
            "owner()": "2369",
            "packItem(uint256)": "30134",
            "processItem(uint256)": "30125",
            "purchaseItem(uint256)": "76385",
            "receiveItem(uint256)": "78721",
            "renounceConsumer()": "28132",
            "renounceDistributor()": "28044",
            "renounceFarmer()": "28109",
            "renounceOwnership()": "30255",
            "renounceRetailer()": "28087",
            "sellItem(uint256,uint256)": "52220",
            "shipItem(uint256)": "32492",
            "transferOwnership(address)": "30495"
        }
    }
}