{
    "contractName": "LemonadeStand",
    "abi": [
        {
            "inputs": [],
            "stateMutability": "payable",
            "type": "constructor"
        },
        {
            "anonymous": false,
            "inputs": [
                {
                    "indexed": false,
                    "internalType": "uint256",
                    "name": "skuCount",
                    "type": "uint256"
                }
            ],
            "name": "ForSale",
            "type": "event"
        },
        {
            "anonymous": false,
            "inputs": [
                {
                    "indexed": false,
                    "internalType": "uint256",
                    "name": "sku",
                    "type": "uint256"
                }
            ],
            "name": "Sold",
            "type": "event"
        },
        {
            "inputs": [
                {
                    "internalType": "string",
                    "name": "_name",
                    "type": "string"
                },
                {
                    "internalType": "uint256",
                    "name": "_price",
                    "type": "uint256"
                }
            ],
            "name": "addItem",
            "outputs": [],
            "stateMutability": "nonpayable",
            "type": "function"
        },
        {
            "inputs": [
                {
                    "internalType": "uint256",
                    "name": "sku",
                    "type": "uint256"
                }
            ],
            "name": "buyItem",
            "outputs": [],
            "stateMutability": "payable",
            "type": "function"
        },
        {
            "inputs": [
                {
                    "internalType": "uint256",
                    "name": "_sku",
                    "type": "uint256"
                }
            ],
            "name": "fetchItem",
            "outputs": [
                {
                    "internalType": "string",
                    "name": "name",
                    "type": "string"
                },
                {
                    "internalType": "uint256",
                    "name": "sku",
                    "type": "uint256"
                },
                {
                    "internalType": "uint256",
                    "name": "price",
                    "type": "uint256"
                },
                {
                    "internalType": "string",
                    "name": "stateIs",
                    "type": "string"
                },
                {
                    "internalType": "address",
                    "name": "seller",
                    "type": "address"
                },
                {
                    "internalType": "address",
                    "name": "buyer",
                    "type": "address"
                }
            ],
            "stateMutability": "view",
            "type": "function"
        }
    ],
    "bytecode": "6080604052600080546001600160a01b0319163317815560015561073a806100286000396000f3fe6080604052600436106100345760003560e01c806362d6bbdf14610039578063ad4b9cfb1461005b578063e7fb74c714610096575b600080fd5b34801561004557600080fd5b5061005961005436600461051b565b6100a9565b005b34801561006757600080fd5b5061007b6100763660046105d0565b6101e6565b60405161008d96959493929190610636565b60405180910390f35b6100596100a43660046105d0565b610362565b6000546001600160a01b031633146100c057600080fd5b600180546100cd9161068e565b60018190556040519081527fa96ae0fc3224ebd79eebfe54bd130cc9cb94416cddd1f2386115e00b725324689060200160405180910390a16040805160c081018252838152600154602080830182905282840185905260006060840181905233608085015260a08401819052918252600281529290208151805192939192610158928492019061046c565b50602082015181600101556040820151816002015560608201518160030160006101000a81548160ff02191690836001811115610197576101976106b4565b02179055506080820151600382018054610100600160a81b0319166101006001600160a01b039384160217905560a090920151600490910180546001600160a01b031916919092161790555050565b606060008060606000806000600260008981526020019081526020016000206000018054610213906106ca565b80601f016020809104026020016040519081016040528092919081815260200182805461023f906106ca565b801561028c5780601f106102615761010080835404028352916020019161028c565b820191906000526020600020905b81548152906001019060200180831161026f57829003601f168201915b50505060008b815260026020819052604090912060018082015492820154600390920154959c50919a50985060ff9093169283111591506102d19050576102d16106b4565b9050806000036102ff5760405180604001604052806008815260200167466f722053616c6560c01b81525093505b80600103610327576040518060400160405280600481526020016314dbdb1960e21b81525093505b505050600094855260026020526040909420600381015460049091015493959294919391926101009091046001600160a01b03908116921690565b806000808281526002602052604090206003015460ff16600181111561038a5761038a6106b4565b1461039457600080fd5b60008281526002602081905260409091200154348111156103b457600080fd5b6000838152600260208190526040808320918201546004830180546001600160a01b031916339081179091556003909301805460ff1916600117908190559151929390926101009092046001600160a01b03169182916108fc851502918591818181858888f19350505050158015610430573d6000803e3d6000fd5b506040518681527f92f64ca637d023f354075a4be751b169c1a8a9ccb6d33cdd0cb35205439957279060200160405180910390a1505050505050565b828054610478906106ca565b90600052602060002090601f01602090048101928261049a57600085556104e0565b82601f106104b357805160ff19168380011785556104e0565b828001600101855582156104e0579182015b828111156104e05782518255916020019190600101906104c5565b506104ec9291506104f0565b5090565b5b808211156104ec57600081556001016104f1565b634e487b7160e01b600052604160045260246000fd5b6000806040838503121561052e57600080fd5b823567ffffffffffffffff8082111561054657600080fd5b818501915085601f83011261055a57600080fd5b81358181111561056c5761056c610505565b604051601f8201601f19908116603f0116810190838211818310171561059457610594610505565b816040528281528860208487010111156105ad57600080fd5b826020860160208301376000602093820184015298969091013596505050505050565b6000602082840312156105e257600080fd5b5035919050565b6000815180845260005b8181101561060f576020818501810151868301820152016105f3565b81811115610621576000602083870101525b50601f01601f19169290920160200192915050565b60c08152600061064960c08301896105e9565b876020840152866040840152828103606084015261066781876105e9565b6001600160a01b0395861660808501529390941660a0909201919091525095945050505050565b600082198211156106af57634e487b7160e01b600052601160045260246000fd5b500190565b634e487b7160e01b600052602160045260246000fd5b600181811c908216806106de57607f821691505b6020821081036106fe57634e487b7160e01b600052602260045260246000fd5b5091905056fea264697066735822122054f715d65de990059590065a55dbcd77a79e26424d1690d93a2275437dc27ea864736f6c634300080d0033",
    "sourcePath": "d:/Udacity/Home/Workspace/SupplyChain/remixexample.sol",
    "compiler": {
        "name": "solc",
        "version": "0.8.13+commit.abaa5c0e"
    },
    "functionHashes": {
        "addItem(string,uint256)": "62d6bbdf",
        "buyItem(uint256)": "e7fb74c7",
        "fetchItem(uint256)": "ad4b9cfb"
    },
    "gasEstimates": {
        "creation": {
            "codeDepositCost": "370000",
            "executionCost": "29619",
            "totalCost": "399619"
        },
        "external": {
            "addItem(string,uint256)": "infinite",
            "buyItem(uint256)": "infinite",
            "fetchItem(uint256)": "infinite"
        }
    }
}